{
  "contractName": "MediWox",
  "abi": [
    {
      "inputs": [],
      "stateMutability": "nonpayable",
      "type": "constructor"
    },
    {
      "inputs": [
        {
          "internalType": "uint256",
          "name": "",
          "type": "uint256"
        }
      ],
      "name": "claims",
      "outputs": [
        {
          "internalType": "address",
          "name": "doctor",
          "type": "address"
        },
        {
          "internalType": "address",
          "name": "patient",
          "type": "address"
        },
        {
          "internalType": "address",
          "name": "insurer",
          "type": "address"
        },
        {
          "internalType": "string",
          "name": "policyName",
          "type": "string"
        },
        {
          "internalType": "string",
          "name": "record",
          "type": "string"
        },
        {
          "internalType": "uint256",
          "name": "valueClaimed",
          "type": "uint256"
        },
        {
          "internalType": "bool",
          "name": "approved",
          "type": "bool"
        },
        {
          "internalType": "bool",
          "name": "rejected",
          "type": "bool"
        },
        {
          "internalType": "uint256",
          "name": "transactionId",
          "type": "uint256"
        }
      ],
      "stateMutability": "view",
      "type": "function",
      "constant": true
    },
    {
      "inputs": [],
      "name": "claimsCount",
      "outputs": [
        {
          "internalType": "uint256",
          "name": "",
          "type": "uint256"
        }
      ],
      "stateMutability": "view",
      "type": "function",
      "constant": true
    },
    {
      "inputs": [
        {
          "internalType": "address",
          "name": "",
          "type": "address"
        }
      ],
      "name": "doctorInfo",
      "outputs": [
        {
          "internalType": "string",
          "name": "name",
          "type": "string"
        },
        {
          "internalType": "string",
          "name": "email",
          "type": "string"
        },
        {
          "internalType": "bool",
          "name": "exists",
          "type": "bool"
        }
      ],
      "stateMutability": "view",
      "type": "function",
      "constant": true
    },
    {
      "inputs": [
        {
          "internalType": "uint256",
          "name": "",
          "type": "uint256"
        }
      ],
      "name": "doctorList",
      "outputs": [
        {
          "internalType": "address",
          "name": "",
          "type": "address"
        }
      ],
      "stateMutability": "view",
      "type": "function",
      "constant": true
    },
    {
      "inputs": [
        {
          "internalType": "string",
          "name": "",
          "type": "string"
        }
      ],
      "name": "emailToAddress",
      "outputs": [
        {
          "internalType": "address",
          "name": "",
          "type": "address"
        }
      ],
      "stateMutability": "view",
      "type": "function",
      "constant": true
    },
    {
      "inputs": [
        {
          "internalType": "string",
          "name": "",
          "type": "string"
        }
      ],
      "name": "emailToDesignation",
      "outputs": [
        {
          "internalType": "uint256",
          "name": "",
          "type": "uint256"
        }
      ],
      "stateMutability": "view",
      "type": "function",
      "constant": true
    },
    {
      "inputs": [
        {
          "internalType": "address",
          "name": "",
          "type": "address"
        }
      ],
      "name": "insurerInfo",
      "outputs": [
        {
          "internalType": "string",
          "name": "name",
          "type": "string"
        },
        {
          "internalType": "string",
          "name": "email",
          "type": "string"
        },
        {
          "internalType": "bool",
          "name": "exists",
          "type": "bool"
        }
      ],
      "stateMutability": "view",
      "type": "function",
      "constant": true
    },
    {
      "inputs": [
        {
          "internalType": "uint256",
          "name": "",
          "type": "uint256"
        }
      ],
      "name": "insurerList",
      "outputs": [
        {
          "internalType": "address",
          "name": "",
          "type": "address"
        }
      ],
      "stateMutability": "view",
      "type": "function",
      "constant": true
    },
    {
      "inputs": [],
      "name": "name",
      "outputs": [
        {
          "internalType": "string",
          "name": "",
          "type": "string"
        }
      ],
      "stateMutability": "view",
      "type": "function",
      "constant": true
    },
    {
      "inputs": [
        {
          "internalType": "address",
          "name": "",
          "type": "address"
        }
      ],
      "name": "patientInfo",
      "outputs": [
        {
          "internalType": "string",
          "name": "name",
          "type": "string"
        },
        {
          "internalType": "string",
          "name": "email",
          "type": "string"
        },
        {
          "internalType": "uint256",
          "name": "age",
          "type": "uint256"
        },
        {
          "internalType": "string",
          "name": "record",
          "type": "string"
        },
        {
          "internalType": "bool",
          "name": "exists",
          "type": "bool"
        },
        {
          "internalType": "bool",
          "name": "policyActive",
          "type": "bool"
        },
        {
          "components": [
            {
              "internalType": "uint256",
              "name": "id",
              "type": "uint256"
            },
            {
              "internalType": "address",
              "name": "insurer",
              "type": "address"
            },
            {
              "internalType": "string",
              "name": "name",
              "type": "string"
            },
            {
              "internalType": "uint256",
              "name": "coverValue",
              "type": "uint256"
            },
            {
              "internalType": "uint256",
              "name": "timePeriod",
              "type": "uint256"
            },
            {
              "internalType": "uint256",
              "name": "premium",
              "type": "uint256"
            }
          ],
          "internalType": "struct MediWox.Policy",
          "name": "policy",
          "type": "tuple"
        }
      ],
      "stateMutability": "view",
      "type": "function",
      "constant": true
    },
    {
      "inputs": [
        {
          "internalType": "uint256",
          "name": "",
          "type": "uint256"
        }
      ],
      "name": "patientList",
      "outputs": [
        {
          "internalType": "address",
          "name": "",
          "type": "address"
        }
      ],
      "stateMutability": "view",
      "type": "function",
      "constant": true
    },
    {
      "inputs": [
        {
          "internalType": "uint256",
          "name": "",
          "type": "uint256"
        }
      ],
      "name": "policyList",
      "outputs": [
        {
          "internalType": "uint256",
          "name": "id",
          "type": "uint256"
        },
        {
          "internalType": "address",
          "name": "insurer",
          "type": "address"
        },
        {
          "internalType": "string",
          "name": "name",
          "type": "string"
        },
        {
          "internalType": "uint256",
          "name": "coverValue",
          "type": "uint256"
        },
        {
          "internalType": "uint256",
          "name": "timePeriod",
          "type": "uint256"
        },
        {
          "internalType": "uint256",
          "name": "premium",
          "type": "uint256"
        }
      ],
      "stateMutability": "view",
      "type": "function",
      "constant": true
    },
    {
      "inputs": [],
      "name": "transactionCount",
      "outputs": [
        {
          "internalType": "uint256",
          "name": "",
          "type": "uint256"
        }
      ],
      "stateMutability": "view",
      "type": "function",
      "constant": true
    },
    {
      "inputs": [
        {
          "internalType": "uint256",
          "name": "",
          "type": "uint256"
        }
      ],
      "name": "transactions",
      "outputs": [
        {
          "internalType": "address",
          "name": "sender",
          "type": "address"
        },
        {
          "internalType": "address",
          "name": "receiver",
          "type": "address"
        },
        {
          "internalType": "uint256",
          "name": "value",
          "type": "uint256"
        },
        {
          "internalType": "bool",
          "name": "settled",
          "type": "bool"
        }
      ],
      "stateMutability": "view",
      "type": "function",
      "constant": true
    },
    {
      "inputs": [
        {
          "internalType": "string",
          "name": "_name",
          "type": "string"
        },
        {
          "internalType": "uint256",
          "name": "_age",
          "type": "uint256"
        },
        {
          "internalType": "uint256",
          "name": "_designation",
          "type": "uint256"
        },
        {
          "internalType": "string",
          "name": "_email",
          "type": "string"
        },
        {
          "internalType": "string",
          "name": "_hash",
          "type": "string"
        }
      ],
      "name": "register",
      "outputs": [],
      "stateMutability": "nonpayable",
      "type": "function"
    },
    {
      "inputs": [
        {
          "internalType": "address",
          "name": "_addr",
          "type": "address"
        }
      ],
      "name": "login",
      "outputs": [
        {
          "internalType": "uint256",
          "name": "",
          "type": "uint256"
        }
      ],
      "stateMutability": "view",
      "type": "function",
      "constant": true
    },
    {
      "inputs": [
        {
          "internalType": "address",
          "name": "_addr",
          "type": "address"
        }
      ],
      "name": "getPatientDoctorList",
      "outputs": [
        {
          "internalType": "address[]",
          "name": "",
          "type": "address[]"
        }
      ],
      "stateMutability": "view",
      "type": "function",
      "constant": true
    },
    {
      "inputs": [
        {
          "internalType": "address",
          "name": "_addr",
          "type": "address"
        }
      ],
      "name": "getDoctorPatientList",
      "outputs": [
        {
          "internalType": "address[]",
          "name": "",
          "type": "address[]"
        }
      ],
      "stateMutability": "view",
      "type": "function",
      "constant": true
    },
    {
      "inputs": [
        {
          "internalType": "address",
          "name": "_addr",
          "type": "address"
        }
      ],
      "name": "getInsurerPolicyList",
      "outputs": [
        {
          "components": [
            {
              "internalType": "uint256",
              "name": "id",
              "type": "uint256"
            },
            {
              "internalType": "address",
              "name": "insurer",
              "type": "address"
            },
            {
              "internalType": "string",
              "name": "name",
              "type": "string"
            },
            {
              "internalType": "uint256",
              "name": "coverValue",
              "type": "uint256"
            },
            {
              "internalType": "uint256",
              "name": "timePeriod",
              "type": "uint256"
            },
            {
              "internalType": "uint256",
              "name": "premium",
              "type": "uint256"
            }
          ],
          "internalType": "struct MediWox.Policy[]",
          "name": "",
          "type": "tuple[]"
        }
      ],
      "stateMutability": "view",
      "type": "function",
      "constant": true
    },
    {
      "inputs": [
        {
          "internalType": "address",
          "name": "_addr",
          "type": "address"
        }
      ],
      "name": "getInsurerPatientList",
      "outputs": [
        {
          "internalType": "address[]",
          "name": "",
          "type": "address[]"
        }
      ],
      "stateMutability": "view",
      "type": "function",
      "constant": true
    },
    {
      "inputs": [
        {
          "internalType": "address",
          "name": "_addr",
          "type": "address"
        }
      ],
      "name": "getInsurerClaims",
      "outputs": [
        {
          "internalType": "uint256[]",
          "name": "",
          "type": "uint256[]"
        }
      ],
      "stateMutability": "view",
      "type": "function",
      "constant": true
    },
    {
      "inputs": [
        {
          "internalType": "address",
          "name": "_addr",
          "type": "address"
        }
      ],
      "name": "getPatientTransactions",
      "outputs": [
        {
          "internalType": "uint256[]",
          "name": "",
          "type": "uint256[]"
        }
      ],
      "stateMutability": "view",
      "type": "function",
      "constant": true
    },
    {
      "inputs": [
        {
          "internalType": "address",
          "name": "_addr",
          "type": "address"
        }
      ],
      "name": "getDoctorTransactions",
      "outputs": [
        {
          "internalType": "uint256[]",
          "name": "",
          "type": "uint256[]"
        }
      ],
      "stateMutability": "view",
      "type": "function",
      "constant": true
    },
    {
      "inputs": [],
      "name": "getAllDoctorsAddress",
      "outputs": [
        {
          "internalType": "address[]",
          "name": "",
          "type": "address[]"
        }
      ],
      "stateMutability": "view",
      "type": "function",
      "constant": true
    },
    {
      "inputs": [],
      "name": "getAllInsurersAddress",
      "outputs": [
        {
          "internalType": "address[]",
          "name": "",
          "type": "address[]"
        }
      ],
      "stateMutability": "view",
      "type": "function",
      "constant": true
    },
    {
      "inputs": [],
      "name": "getAllPolicies",
      "outputs": [
        {
          "components": [
            {
              "internalType": "uint256",
              "name": "id",
              "type": "uint256"
            },
            {
              "internalType": "address",
              "name": "insurer",
              "type": "address"
            },
            {
              "internalType": "string",
              "name": "name",
              "type": "string"
            },
            {
              "internalType": "uint256",
              "name": "coverValue",
              "type": "uint256"
            },
            {
              "internalType": "uint256",
              "name": "timePeriod",
              "type": "uint256"
            },
            {
              "internalType": "uint256",
              "name": "premium",
              "type": "uint256"
            }
          ],
          "internalType": "struct MediWox.Policy[]",
          "name": "",
          "type": "tuple[]"
        }
      ],
      "stateMutability": "view",
      "type": "function",
      "constant": true
    },
    {
      "inputs": [
        {
          "internalType": "string",
          "name": "_email",
          "type": "string"
        }
      ],
      "name": "permitAccess",
      "outputs": [],
      "stateMutability": "nonpayable",
      "type": "function"
    },
    {
      "inputs": [
        {
          "internalType": "uint256",
          "name": "_id",
          "type": "uint256"
        }
      ],
      "name": "buyPolicy",
      "outputs": [],
      "stateMutability": "payable",
      "type": "function",
      "payable": true
    },
    {
      "inputs": [
        {
          "internalType": "address",
          "name": "_addr",
          "type": "address"
        }
      ],
      "name": "revokeAccess",
      "outputs": [],
      "stateMutability": "nonpayable",
      "type": "function"
    },
    {
      "inputs": [
        {
          "internalType": "uint256",
          "name": "_id",
          "type": "uint256"
        }
      ],
      "name": "settleTransactionsByPatient",
      "outputs": [],
      "stateMutability": "payable",
      "type": "function",
      "payable": true
    },
    {
      "inputs": [
        {
          "internalType": "address",
          "name": "paddr",
          "type": "address"
        },
        {
          "internalType": "string",
          "name": "_hash",
          "type": "string"
        },
        {
          "internalType": "uint256",
          "name": "charges",
          "type": "uint256"
        }
      ],
      "name": "insuranceClaimRequest",
      "outputs": [],
      "stateMutability": "nonpayable",
      "type": "function"
    },
    {
      "inputs": [
        {
          "internalType": "string",
          "name": "_name",
          "type": "string"
        },
        {
          "internalType": "uint256",
          "name": "_coverValue",
          "type": "uint256"
        },
        {
          "internalType": "uint256",
          "name": "_timePeriod",
          "type": "uint256"
        },
        {
          "internalType": "uint256",
          "name": "_premium",
          "type": "uint256"
        }
      ],
      "name": "createPolicy",
      "outputs": [],
      "stateMutability": "nonpayable",
      "type": "function"
    },
    {
      "inputs": [
        {
          "internalType": "uint256",
          "name": "_id",
          "type": "uint256"
        }
      ],
      "name": "approveClaimsByInsurer",
      "outputs": [],
      "stateMutability": "payable",
      "type": "function",
      "payable": true
    },
    {
      "inputs": [
        {
          "internalType": "uint256",
          "name": "_id",
          "type": "uint256"
        }
      ],
      "name": "rejectClaimsByInsurer",
      "outputs": [],
      "stateMutability": "nonpayable",
      "type": "function"
    }
  ],
  "bytecode": "0x60806040523480156200001157600080fd5b506040805180820190915260078152660dacac8d2eedef60cb1b60208201526000906200003f9082620000f5565b5060006005819055600655620001c1565b634e487b7160e01b600052604160045260246000fd5b600181811c908216806200007b57607f821691505b6020821081036200009c57634e487b7160e01b600052602260045260246000fd5b50919050565b601f821115620000f057600081815260208120601f850160051c81016020861015620000cb5750805b601f850160051c820191505b81811015620000ec57828155600101620000d7565b5050505b505050565b81516001600160401b0381111562000111576200011162000050565b620001298162000122845462000066565b84620000a2565b602080601f831160018114620001615760008415620001485750858301515b600019600386901b1c1916600185901b178555620000ec565b600085815260208120601f198616915b82811015620001925788860151825594840194600190910190840162000171565b5085821015620001b15787850151600019600388901b60f8161c191681555b5050505050600190811b01905550565b6137d780620001d16000396000f3fe6080604052600436106101f95760003560e01c806378ffb2921161010d578063a9bc9933116100a0578063cd10b92e1161006f578063cd10b92e14610669578063ea78dcbf14610689578063eeec248a146106ca578063fa465485146106ea578063fae0aee2146106fd57600080fd5b8063a9bc9933146105fd578063b77bf6001461061d578063babb1d4114610633578063bbd245ea1461065357600080fd5b806385e68531116100dc57806385e68531146105095780639493ba55146105295780639ace38c214610549578063a888c2cd146105c857600080fd5b806378ffb292146104a157806379c88894146104c1578063840c9ad2146104d4578063844ff83d146104f457600080fd5b80634ab72aae116101905780635497dacf1161015f5780635497dacf146103ee5780636142d2dc1461040e57806363ff69ba146104415780636586a91f1461046157806371343df61461048157600080fd5b80634ab72aae146103725780634d70c524146103945780634fdc9ea9146103a95780634ff9290b146103db57600080fd5b80631bf04073116101cc5780631bf04073146102d457806331c15f9d1461030357806335a6861a14610330578063457e55211461035057600080fd5b806306fdde03146101fe57806310d2581114610229578063127ca4b41461026f5780631707c2e3146102a7575b600080fd5b34801561020a57600080fd5b5061021361071d565b6040516102209190612fb2565b60405180910390f35b34801561023557600080fd5b5061026161024436600461306f565b8051602081830181018051600d8252928201919093012091525481565b604051908152602001610220565b34801561027b57600080fd5b5061028f61028a3660046130ac565b6107ab565b6040516001600160a01b039091168152602001610220565b3480156102b357600080fd5b506102c76102c23660046130dc565b6107d5565b60405161022091906130f7565b3480156102e057600080fd5b506102f46102ef3660046130dc565b61087f565b6040516102209392919061313b565b34801561030f57600080fd5b5061032361031e3660046130dc565b6109b4565b6040516102209190613173565b34801561033c57600080fd5b5061026161034b3660046130dc565b610a67565b34801561035c57600080fd5b50610365610b0d565b604051610220919061320f565b34801561037e57600080fd5b5061039261038d366004613271565b610c3c565b005b3480156103a057600080fd5b50610323610e36565b3480156103b557600080fd5b506103c96103c43660046130ac565b610e98565b604051610220969594939291906132c5565b6103926103e93660046130ac565b610f73565b3480156103fa57600080fd5b506103236104093660046130dc565b6110b2565b34801561041a57600080fd5b5061042e6104293660046130dc565b611164565b604051610220979695949392919061330d565b34801561044d57600080fd5b5061039261045c3660046130ac565b611416565b34801561046d57600080fd5b5061036561047c3660046130dc565b6115ca565b34801561048d57600080fd5b506102c761049c3660046130dc565b61174a565b3480156104ad57600080fd5b5061028f6104bc3660046130ac565b6117f2565b6103926104cf3660046130ac565b611802565b3480156104e057600080fd5b506102f46104ef3660046130dc565b611aa0565b34801561050057600080fd5b50610323611abb565b34801561051557600080fd5b506103926105243660046130dc565b611b1b565b34801561053557600080fd5b506103236105443660046130dc565b611bc5565b34801561055557600080fd5b5061059b6105643660046130ac565b60086020526000908152604090208054600182015460028301546003909301546001600160a01b0392831693919092169160ff1684565b604080516001600160a01b0395861681529490931660208501529183015215156060820152608001610220565b3480156105d457600080fd5b506105e86105e33660046130ac565b611c77565b6040516102209998979695949392919061337e565b34801561060957600080fd5b506103926106183660046133f1565b611de8565b34801561062957600080fd5b5061026160065481565b34801561063f57600080fd5b5061028f61064e3660046130ac565b6127dc565b34801561065f57600080fd5b5061026160055481565b34801561067557600080fd5b506102c76106843660046130dc565b6127ec565b34801561069557600080fd5b5061028f6106a436600461306f565b8051602081830181018051600c825292820191909301209152546001600160a01b031681565b3480156106d657600080fd5b506103926106e5366004613448565b612894565b6103926106f83660046130ac565b612c22565b34801561070957600080fd5b5061039261071836600461306f565b612d1b565b6000805461072a906134e4565b80601f0160208091040260200160405190810160405280929190818152602001828054610756906134e4565b80156107a35780601f10610778576101008083540402835291602001916107a3565b820191906000526020600020905b81548152906001019060200180831161078657829003601f168201915b505050505081565b600281815481106107bb57600080fd5b6000918252602090912001546001600160a01b0316905081565b60606001600160a01b0382166107ea57600080fd5b6001600160a01b03821660009081526009602052604090206004015460ff1661081257600080fd5b6001600160a01b038216600090815260096020908152604091829020600b018054835181840281018401909452808452909183018282801561087357602002820191906000526020600020905b81548152602001906001019080831161085f575b50505050509050919050565b600a6020526000908152604090208054819061089a906134e4565b80601f01602080910402602001604051908101604052809291908181526020018280546108c6906134e4565b80156109135780601f106108e857610100808354040283529160200191610913565b820191906000526020600020905b8154815290600101906020018083116108f657829003601f168201915b505050505090806001018054610928906134e4565b80601f0160208091040260200160405190810160405280929190818152602001828054610954906134e4565b80156109a15780601f10610976576101008083540402835291602001916109a1565b820191906000526020600020905b81548152906001019060200180831161098457829003601f168201915b5050506002909301549192505060ff1683565b60606001600160a01b0382166109c957600080fd5b6001600160a01b0382166000908152600b602052604090206002015460ff166109f157600080fd5b6001600160a01b0382166000908152600b60209081526040918290206004018054835181840281018401909452808452909183018282801561087357602002820191906000526020600020905b81546001600160a01b03168152600190910190602001808311610a3e5750505050509050919050565b60006001600160a01b038216610a7c57600080fd5b6001600160a01b03821660009081526009602052604090206004015460ff1615610aa857506001919050565b6001600160a01b0382166000908152600a602052604090206002015460ff1615610ad457506002919050565b6001600160a01b0382166000908152600b602052604090206002015460ff1615610b0057506003919050565b506000919050565b919050565b60606004805480602002602001604051908101604052809291908181526020016000905b82821015610c335760008481526020908190206040805160c081018252600686029092018054835260018101546001600160a01b03169383019390935260028301805492939291840191610b84906134e4565b80601f0160208091040260200160405190810160405280929190818152602001828054610bb0906134e4565b8015610bfd5780601f10610bd257610100808354040283529160200191610bfd565b820191906000526020600020905b815481529060010190602001808311610be057829003601f168201915b50505050508152602001600382015481526020016004820154815260200160058201548152505081526020019060010190610b31565b50505050905090565b6000845111610c4a57600080fd5b60008311610c5757600080fd5b60008111610c6457600080fd5b60008211610c7157600080fd5b33610c7b57600080fd5b336000908152600b602052604090206002015460ff16610c9a57600080fd5b6040805160c081018252600480548083523360208401908152938301888152606084018890526080840187905260a0840186905260018201835560009290925282517f8a35acfbc15ff81a39ae7d344fd709f28e8600b4aa8c65c6b64bfe7fe36bd19b600690920291820190815593517f8a35acfbc15ff81a39ae7d344fd709f28e8600b4aa8c65c6b64bfe7fe36bd19c820180546001600160a01b0319166001600160a01b0390921691909117905590519192839290917f8a35acfbc15ff81a39ae7d344fd709f28e8600b4aa8c65c6b64bfe7fe36bd19d0190610d7f9082613569565b5060608201516003828101919091556080830151600483015560a090920151600590910155336000908152600b602090815260408083209093018054600180820183559184529282902085516006909402019283559084015190820180546001600160a01b0319166001600160a01b03909216919091179055908201518291906002820190610e0e9082613569565b50606082015181600301556080820151816004015560a0820151816005015550505050505050565b60606003805480602002602001604051908101604052809291908181526020018280548015610e8e57602002820191906000526020600020905b81546001600160a01b03168152600190910190602001808311610e70575b5050505050905090565b60048181548110610ea857600080fd5b60009182526020909120600690910201805460018201546002830180549294506001600160a01b039091169291610ede906134e4565b80601f0160208091040260200160405190810160405280929190818152602001828054610f0a906134e4565b8015610f575780601f10610f2c57610100808354040283529160200191610f57565b820191906000526020600020905b815481529060010190602001808311610f3a57829003601f168201915b5050505050908060030154908060040154908060050154905086565b33610f7d57600080fd5b336000908152600b602052604090206002015460ff16610f9c57600080fd5b6000818152600760205260409020600201546001600160a01b03163314610fc257600080fd5b60008181526007602052604090206006015460ff1615610fe157600080fd5b600081815260076020526040902060060154610100900460ff161561100557600080fd5b6000818152600760209081526040808320546001600160a01b0316808452600a9092529091206002015460ff1661103b57600080fd5b6040516001600160a01b038216903480156108fc02916000818181858888f19350505050158015611070573d6000803e3d6000fd5b50506000908152600760208181526040808420600681018054600160ff1991821681179092559190940154855260089092529092206003018054909216179055565b60606001600160a01b0382166110c757600080fd5b6001600160a01b0382166000908152600a602052604090206002015460ff166110ef57600080fd5b6001600160a01b0382166000908152600a602090815260409182902060040180548351818402810184019094528084529091830182828015610873576020028201919060005260206000209081546001600160a01b03168152600190910190602001808311610a3e5750505050509050919050565b60096020526000908152604090208054819061117f906134e4565b80601f01602080910402602001604051908101604052809291908181526020018280546111ab906134e4565b80156111f85780601f106111cd576101008083540402835291602001916111f8565b820191906000526020600020905b8154815290600101906020018083116111db57829003601f168201915b50505050509080600101805461120d906134e4565b80601f0160208091040260200160405190810160405280929190818152602001828054611239906134e4565b80156112865780601f1061125b57610100808354040283529160200191611286565b820191906000526020600020905b81548152906001019060200180831161126957829003601f168201915b5050505050908060020154908060030180546112a1906134e4565b80601f01602080910402602001604051908101604052809291908181526020018280546112cd906134e4565b801561131a5780601f106112ef5761010080835404028352916020019161131a565b820191906000526020600020905b8154815290600101906020018083116112fd57829003601f168201915b50505060048401546040805160c081018252600587018054825260068801546001600160a01b03166020830152600788018054979860ff8087169961010090970416975095509193909284019190611371906134e4565b80601f016020809104026020016040519081016040528092919081815260200182805461139d906134e4565b80156113ea5780601f106113bf576101008083540402835291602001916113ea565b820191906000526020600020905b8154815290600101906020018083116113cd57829003601f168201915b505050505081526020016003820154815260200160048201548152602001600582015481525050905087565b3361142057600080fd5b336000908152600b602052604090206002015460ff1661143f57600080fd5b6000818152600760205260409020600201546001600160a01b0316331461146557600080fd5b60008181526007602052604090206006015460ff161561148457600080fd5b600081815260076020526040902060060154610100900460ff16156114a857600080fd5b6000818152600760209081526040808320600101546001600160a01b031680845260099092529091206004015460ff166114e157600080fd5b600082815260076020818152604080842060068101805461ff001916610100908117909155938101805486526008845282862080546001600160a01b0389166001600160a01b03199091168117825580885260098087529488209254600b84018054600181018255908a52878a2001559096529190925260048101549193926005909101910460ff16611597576001600160a01b0384166000908152600960205260409020600401805461ff0019166101001790555b600085815260076020526040812060050154600383018054919290916115be90849061363f565b90915550505050505050565b60606001600160a01b0382166115df57600080fd5b6001600160a01b0382166000908152600b602052604090206002015460ff1661160757600080fd5b6001600160a01b0382166000908152600b6020908152604080832060030180548251818502810185019093528083529193909284015b8282101561173f5760008481526020908190206040805160c081018252600686029092018054835260018101546001600160a01b03169383019390935260028301805492939291840191611690906134e4565b80601f01602080910402602001604051908101604052809291908181526020018280546116bc906134e4565b80156117095780601f106116de57610100808354040283529160200191611709565b820191906000526020600020905b8154815290600101906020018083116116ec57829003601f168201915b5050505050815260200160038201548152602001600482015481526020016005820154815250508152602001906001019061163d565b505050509050919050565b60606001600160a01b03821661175f57600080fd5b6001600160a01b0382166000908152600a602052604090206002015460ff1661178757600080fd5b6001600160a01b0382166000908152600a602090815260409182902060030180548351818402810184019094528084529091830182828015610873576020028201919060005260206000209081548152602001906001019080831161085f5750505050509050919050565b600381815481106107bb57600080fd5b600454811061181057600080fd5b3361181a57600080fd5b3360009081526009602052604090206004015460ff1661183957600080fd5b343331101561184757600080fd5b6004818154811061185a5761185a613652565b600091825260208220600160069092020101546040516001600160a01b03909116913480156108fc02929091818181858888f193505050501580156118a3573d6000803e3d6000fd5b50600481815481106118b7576118b7613652565b60009182526020808320600690920290910154338352600990915260409091206005015560048054829081106118ef576118ef613652565b60009182526020808320338452600990915260409092206007019161191b916006020160020182613668565b506004818154811061192f5761192f613652565b60009182526020808320600360069093020191909101543383526009909152604090912060080155600480548290811061196b5761196b613652565b60009182526020808320600160069384029091010154338452600990915260409092200180546001600160a01b0319166001600160a01b0390921691909117905560048054829081106119c0576119c0613652565b600091825260208083206004600690930201820154338452600991829052604090932001919091558054829081106119fa576119fa613652565b6000918252602080832060056006909302019190910154338352600990915260408220600a8101919091556004908101805461ff0019166101001790558054600b92919084908110611a4e57611a4e613652565b6000918252602080832060016006909302018201546001600160a01b031684528381019490945260409092018120600401805492830181558152919091200180546001600160a01b0319163317905550565b600b6020526000908152604090208054819061089a906134e4565b60606002805480602002602001604051908101604052809291908181526020018280548015610e8e576020028201919060005260206000209081546001600160a01b03168152600190910190602001808311610e70575050505050905090565b6001600160a01b038116611b2e57600080fd5b33611b3857600080fd5b6001600160a01b0381166000908152600a602052604090206002015460ff16611b6057600080fd5b3360009081526009602052604090206004015460ff16611b7f57600080fd5b6001600160a01b0381166000908152600a60205260409020611ba49060040133612e1e565b50336000908152600960205260409020611bc190600c0182612e1e565b5050565b60606001600160a01b038216611bda57600080fd5b6001600160a01b03821660009081526009602052604090206004015460ff16611c0257600080fd5b6001600160a01b038216600090815260096020908152604091829020600c0180548351818402810184019094528084529091830182828015610873576020028201919060005260206000209081546001600160a01b03168152600190910190602001808311610a3e5750505050509050919050565b60076020526000908152604090208054600182015460028301546003840180546001600160a01b0394851695938516949092169291611cb5906134e4565b80601f0160208091040260200160405190810160405280929190818152602001828054611ce1906134e4565b8015611d2e5780601f10611d0357610100808354040283529160200191611d2e565b820191906000526020600020905b815481529060010190602001808311611d1157829003601f168201915b505050505090806004018054611d43906134e4565b80601f0160208091040260200160405190810160405280929190818152602001828054611d6f906134e4565b8015611dbc5780601f10611d9157610100808354040283529160200191611dbc565b820191906000526020600020905b815481529060010190602001808311611d9f57829003601f168201915b505050600584015460068501546007909501549394909360ff8083169450610100909204909116915089565b33611df257600080fd5b6001600160a01b038316611e0557600080fd5b336000908152600a602052604090206002015460ff16611e2457600080fd5b6001600160a01b03831660009081526009602052604090206004015460ff16611e4c57600080fd5b6000825111611e5a57600080fd5b6000805b336000908152600a6020526040902060040154811015611ed957336000908152600a6020526040902060040180546001600160a01b038716919083908110611ea857611ea8613652565b6000918252602090912001546001600160a01b031603611ec757600191505b80611ed181613743565b915050611e5e565b5080611ee457600080fd5b6001600160a01b0384166000908152600960205260409020600301611f098482613569565b506001600160a01b038416600090815260096020526040902060040154610100900460ff168015611f5457506001600160a01b03841660009081526009602052604090206008015415155b156126fa576001600160a01b038085166000908152600960205260409020600681015460089091015491169083116122c95760068054906000611f9683613743565b9091555050604080516080810182526001600160a01b038084168083523360208085018281528587018a815260006060880181815260068054835260088087528b84209a518b54908b166001600160a01b0319918216178c55955160018c81018054928d169290981691909117909655935160028b015590516003998a01805491151560ff19909216919091179055948152600a845288812085549801805480850182559082528482200197909755938652600b825286862083549301805491820181558652818620019190915591891683526009909152919020015461207e90849061375c565b6001600160a01b0386166000908152600960205260408120600801829055036120c6576001600160a01b0385166000908152600960205260409020600401805461ff00191690555b600580549060006120d683613743565b909155505060408051610120810182523381526001600160a01b0387811660208084018290529185168385015260009081526009909152919091206007018054606083019190612125906134e4565b80601f0160208091040260200160405190810160405280929190818152602001828054612151906134e4565b801561219e5780601f106121735761010080835404028352916020019161219e565b820191906000526020600020905b81548152906001019060200180831161218157829003601f168201915b505050918352505060208082018790526040808301879052600060608085018290526080850182905260065460a090950194909452600554815260078352819020845181546001600160a01b03199081166001600160a01b039283161783559386015160018301805486169183169190911790559185015160028201805490941692169190911790915590820151600382019061223b9082613569565b50608082015160048201906122509082613569565b5060a082015160058281019190915560c083015160068301805460e086015161ffff1990911692151561ff001916929092176101009215158302179055909201516007909101556001600160a01b0382166000908152600b602090815260408220835493018054600181018255908352912001556126f4565b600680549060006122d983613743565b9091555050604080516080810182526001600160a01b0387168082523360208084019190915260009182526009905282902060080154909182019061231e908661375c565b815260006020918201819052600680548252600883526040808320855181546001600160a01b03199081166001600160a01b039283161783558787015160018085018054909316918416919091179091558784015160028401556060909701516003928301805460ff1916911515919091179055338552600a8652828520845492018054808901825590865286862001919091558a1683526009845282208154600b90910180549586018155835292822090930191909155815491906123e383613743565b9091555050604080516080810182526001600160a01b038381168083523360208085018281528b8516600090815260098352878120600890810154888a01908152606089018381526006805485529286528a842099518a546001600160a01b0319908116918b16919091178b5594516001808c01805490971691909a161790945551600289015591516003978801805460ff1916911515919091179055928352600a825286832081549601805480870182559084528284200195909555918152600b8252938420835493018054928301815584528320015560058054916124c983613743565b909155505060408051610120810182523381526001600160a01b0387811660208084018290529185168385015260009081526009909152919091206007018054606083019190612518906134e4565b80601f0160208091040260200160405190810160405280929190818152602001828054612544906134e4565b80156125915780601f1061256657610100808354040283529160200191612591565b820191906000526020600020905b81548152906001019060200180831161257457829003601f168201915b505050918352505060208082018790526001600160a01b038089166000908152600983526040808220600801548186015260608086018390526080860183905260065460a09096019590955260055482526007845290819020855181549084166001600160a01b0319918216178255938601516001820180549185169186169190911790559085015160028201805491909316931692909217905590820151600382019061263f9082613569565b50608082015160048201906126549082613569565b5060a082015160058281019190915560c083015160068301805460e086015161ffff1990911692151561ff001990811693909317610100911515820217909155909301516007909201919091556001600160a01b038381166000908152600b602090815260408083208554950180546001810182559084528284200194909455918916815260099091529081206008810191909155600401805490911690555b506127d6565b6006805490600061270a83613743565b9091555050604080516080810182526001600160a01b03808716808352336020808501828152858701898152600060608801818152600680548352600886528a832099518a54908a166001600160a01b0319918216178b55945160018b8101805492909b1691909616179098559151600289015590516003978801805491151560ff19909216919091179055928352600a825286832085549601805480830182559084528284200195909555918152600982529384209154600b90920180549384018155845290922001555b50505050565b600181815481106107bb57600080fd5b60606001600160a01b03821661280157600080fd5b6001600160a01b0382166000908152600b602052604090206002015460ff1661282957600080fd5b6001600160a01b0382166000908152600b602090815260409182902060050180548351818402810184019094528084529091830182828015610873576020028201919060005260206000209081548152602001906001019080831161085f5750505050509050919050565b3361289e57600080fd5b60008551116128ac57600080fd5b60008251116128ba57600080fd5b60006001600160a01b0316600c836040516128d5919061376f565b908152604051908190036020019020546001600160a01b0316146128f857600080fd5b600d82604051612908919061376f565b90815260200160405180910390205460001461292357600080fd5b3360008181526009602052604090206004015460ff161561294357600080fd5b6001600160a01b0381166000908152600a602052604090206002015460ff161561296c57600080fd5b6001600160a01b0381166000908152600b602052604090206002015460ff161561299557600080fd5b83600103612ac857600085116129aa57600080fd5b60008251116129b857600080fd5b6001600160a01b0381166000908152600960205260409020806129db8882613569565b50600181016129ea8582613569565b506002810186905560038101612a008482613569565b50600481018054600160ff199091168117909155805480820182556000919091527fb10e2d527612073b26eecdfd717e6a320cf44b4afac2b0732d9fcbe2b7fa0cf60180546001600160a01b0319166001600160a01b0384161790556040518290600c90612a6f90879061376f565b908152602001604051809103902060006101000a8154816001600160a01b0302191690836001600160a01b0316021790555084600d85604051612ab2919061376f565b9081526040519081900360200190205550612c1a565b83600203612b72576001600160a01b0381166000908152600a6020526040902080612af38882613569565b5060018101612b028582613569565b5060028181018054600160ff199091168117909155815490810182556000919091527f405787fa12a823e0f2b7631cc41b3ba8828b3321ca811111fa75cd3aa3bb5ace0180546001600160a01b0319166001600160a01b0384161790556040518290600c90612a6f90879061376f565b836003036101f9576001600160a01b0381166000908152600b6020526040902080612b9d8882613569565b5060018101612bac8582613569565b50600281018054600160ff1990911681179091556003805491820181556000527fc2575a0e9e593c00f959f8c92f12db2869c3395a3b0502d05e2516446f71f85b0180546001600160a01b0319166001600160a01b0384161790556040518290600c90612a6f90879061376f565b505050505050565b33612c2c57600080fd5b3360009081526009602052604090206004015460ff16612c4b57600080fd5b6000818152600860205260409020546001600160a01b03163314612c6e57600080fd5b60008181526008602052604090206003015460ff1615612c8d57600080fd5b6000818152600860209081526040808320600101546001600160a01b0316808452600a9092529091206002015460ff16612cc657600080fd5b6040516001600160a01b038216903480156108fc02916000818181858888f19350505050158015612cfb573d6000803e3d6000fd5b50506000908152600860205260409020600301805460ff19166001179055565b6000815111612d2957600080fd5b33612d3357600080fd5b6000600c82604051612d45919061376f565b908152604051908190036020019020546001600160a01b0316905080612d6a57600080fd5b3360009081526009602052604090206004015460ff16612d8957600080fd5b6001600160a01b0381166000908152600a602052604090206002015460ff16612db157600080fd5b6001600160a01b03166000818152600a60209081526040808320338085526009845291842060049091018054600181810183559186528486200180546001600160a01b03199081169094179055600c90910180549182018155845291909220018054909116909117905550565b60006001600160a01b038216612e3357600080fd5b60008060005b8554811015612e9257846001600160a01b0316868281548110612e5e57612e5e613652565b6000918252602090912001546001600160a01b031603612e8057600192508091505b80612e8a81613743565b915050612e39565b5081612e9d57600080fd5b845460011015612f265784548590612eb79060019061375c565b81548110612ec757612ec7613652565b9060005260206000200160009054906101000a90046001600160a01b0316858281548110612ef757612ef7613652565b9060005260206000200160006101000a8154816001600160a01b0302191690836001600160a01b031602179055505b84805480612f3657612f3661378b565b600082815260209020810160001990810180546001600160a01b03191690550190559150505b92915050565b60005b83811015612f7d578181015183820152602001612f65565b50506000910152565b60008151808452612f9e816020860160208601612f62565b601f01601f19169290920160200192915050565b602081526000612fc56020830184612f86565b9392505050565b634e487b7160e01b600052604160045260246000fd5b600082601f830112612ff357600080fd5b813567ffffffffffffffff8082111561300e5761300e612fcc565b604051601f8301601f19908116603f0116810190828211818310171561303657613036612fcc565b8160405283815286602085880101111561304f57600080fd5b836020870160208301376000602085830101528094505050505092915050565b60006020828403121561308157600080fd5b813567ffffffffffffffff81111561309857600080fd5b6130a484828501612fe2565b949350505050565b6000602082840312156130be57600080fd5b5035919050565b80356001600160a01b0381168114610b0857600080fd5b6000602082840312156130ee57600080fd5b612fc5826130c5565b6020808252825182820181905260009190848201906040850190845b8181101561312f57835183529284019291840191600101613113565b50909695505050505050565b60608152600061314e6060830186612f86565b82810360208401526131608186612f86565b9150508215156040830152949350505050565b6020808252825182820181905260009190848201906040850190845b8181101561312f5783516001600160a01b03168352928401929184019160010161318f565b8051825260018060a01b0360208201511660208301526000604082015160c060408501526131e560c0850182612f86565b9050606083015160608501526080830151608085015260a083015160a08501528091505092915050565b6000602080830181845280855180835260408601915060408160051b870101925083870160005b8281101561326457603f198886030184526132528583516131b4565b94509285019290850190600101613236565b5092979650505050505050565b6000806000806080858703121561328757600080fd5b843567ffffffffffffffff81111561329e57600080fd5b6132aa87828801612fe2565b97602087013597506040870135966060013595509350505050565b8681526001600160a01b038616602082015260c0604082018190526000906132ef90830187612f86565b606083019590955250608081019290925260a0909101529392505050565b60e08152600061332060e083018a612f86565b8281036020840152613332818a612f86565b9050876040840152828103606084015261334c8188612f86565b9050851515608084015284151560a084015282810360c084015261337081856131b4565b9a9950505050505050505050565b6001600160a01b038a81168252898116602083015288166040820152610120606082018190526000906133b38382018a612f86565b905082810360808401526133c78189612f86565b60a0840197909752505092151560c084015290151560e08301526101009091015295945050505050565b60008060006060848603121561340657600080fd5b61340f846130c5565b9250602084013567ffffffffffffffff81111561342b57600080fd5b61343786828701612fe2565b925050604084013590509250925092565b600080600080600060a0868803121561346057600080fd5b853567ffffffffffffffff8082111561347857600080fd5b61348489838a01612fe2565b9650602088013595506040880135945060608801359150808211156134a857600080fd5b6134b489838a01612fe2565b935060808801359150808211156134ca57600080fd5b506134d788828901612fe2565b9150509295509295909350565b600181811c908216806134f857607f821691505b60208210810361351857634e487b7160e01b600052602260045260246000fd5b50919050565b601f82111561356457600081815260208120601f850160051c810160208610156135455750805b601f850160051c820191505b81811015612c1a57828155600101613551565b505050565b815167ffffffffffffffff81111561358357613583612fcc565b6135978161359184546134e4565b8461351e565b602080601f8311600181146135cc57600084156135b45750858301515b600019600386901b1c1916600185901b178555612c1a565b600085815260208120601f198616915b828110156135fb578886015182559484019460019091019084016135dc565b50858210156136195787850151600019600388901b60f8161c191681555b5050505050600190811b01905550565b634e487b7160e01b600052601160045260246000fd5b80820180821115612f5c57612f5c613629565b634e487b7160e01b600052603260045260246000fd5b818103613673575050565b61367d82546134e4565b67ffffffffffffffff81111561369557613695612fcc565b6136a38161359184546134e4565b6000601f8211600181146136d757600083156136bf5750848201545b600019600385901b1c1916600184901b17845561373c565b600085815260209020601f19841690600086815260209020845b8381101561371157828601548255600195860195909101906020016136f1565b508583101561372f5781850154600019600388901b60f8161c191681555b50505060018360011b0184555b5050505050565b60006001820161375557613755613629565b5060010190565b81810381811115612f5c57612f5c613629565b60008251613781818460208701612f62565b9190910192915050565b634e487b7160e01b600052603160045260246000fdfea264697066735822122049320e1a8f534495891fc790d462ef72feac44b4c386becf46c8b66f2bece34064736f6c63430008120033",
  "immutableReferences": {},
  "source": "// SPDX-License-Identifier: MIT\npragma solidity >=0.4.22 <0.9.0;\n\ncontract MediWox {\n    // State Variables\n    string public name;\n    // uint public countPatients;\n    // uint public countDoctors;\n    // uint public countInsurer;\n    // uint public countPolicy;\n    address[] public patientList;\n    address[] public doctorList;\n    address[] public insurerList;\n    Policy[] public policyList;\n    uint public claimsCount;\n    uint public transactionCount;\n    mapping (uint => Claims) public claims;\n    mapping (uint => Transactions) public transactions;\n    mapping (address => Patient) public patientInfo;\n    mapping (address => Doctor) public doctorInfo;\n    mapping (address => Insurer) public insurerInfo;\n    mapping (string => address) public emailToAddress;\n    mapping (string => uint) public emailToDesignation;\n\n    struct Patient {\n        string name;\n        string email;\n        uint age;\n        string record;\n        bool exists;\n        bool policyActive;\n        Policy policy;\n        uint[] transactions;\n        address[] doctorAccessList;\n    }\n    struct Doctor {\n        string name;\n        string email;\n        bool exists;\n        uint[] transactions;\n        address[] patientAccessList;\n    }\n    struct Insurer {\n        string name;\n        string email;\n        bool exists;\n        Policy[] policies;\n        address[] patients;\n        uint[] claims;\n        uint[] transactions;\n    }\n    struct Policy {\n        uint id;\n        address insurer;\n        string name;\n        uint coverValue;\n        uint timePeriod;\n        uint premium;\n    }\n    struct Claims {\n        address doctor;\n        address patient;\n        address insurer;\n        string policyName;\n        string record;\n        uint valueClaimed;\n        bool approved;\n        bool rejected;\n        uint transactionId;\n    }\n    struct Transactions {\n        address sender;\n        address receiver;\n        uint value;\n        bool settled;\n    }\n\n    \n\n    \n\n    \n\n    constructor(){\n        name = \"mediwox\";\n        claimsCount = 0;\n        transactionCount = 0;\n    }\n\n    function register(string memory _name, uint _age, uint _designation, string memory _email, string memory _hash) public {\n        require(msg.sender != address(0));\n        require(bytes(_name).length > 0);\n        require(bytes(_email).length > 0);\n        require(emailToAddress[_email] == address(0));\n        require(emailToDesignation[_email] == 0);\n        address _addr = msg.sender;\n        require(!patientInfo[_addr].exists);\n        require(!doctorInfo[_addr].exists);\n        require(!insurerInfo[_addr].exists);\n        if(_designation == 1){\n            require(_age > 0);\n            require(bytes(_hash).length > 0);\n            Patient storage pinfo = patientInfo[_addr];\n            pinfo.name = _name;\n            pinfo.email = _email;\n            pinfo.age = _age;\n            pinfo.record = _hash;\n            pinfo.exists = true;\n            pinfo.doctorAccessList;\n            patientList.push(_addr);\n            emailToAddress[_email] = _addr;\n            emailToDesignation[_email] = _designation;\n        }\n        else if (_designation == 2){\n            Doctor storage dinfo = doctorInfo[_addr];\n            dinfo.name = _name;\n            dinfo.email = _email;\n            dinfo.exists = true;\n            doctorList.push(_addr);\n            emailToAddress[_email] = _addr;\n            emailToDesignation[_email] = _designation;\n        }\n        else if(_designation == 3){\n            Insurer storage iinfo = insurerInfo[_addr];\n            iinfo.name = _name;\n            iinfo.email = _email;\n            iinfo.exists = true;\n            insurerList.push(_addr);\n            emailToAddress[_email] = _addr;\n            emailToDesignation[_email] = _designation;\n        }\n        else{\n            revert();\n        }\n    }\n\n    function login(address _addr) view public returns (uint){\n        require(_addr != address(0));\n        if(patientInfo[_addr].exists){\n            return 1;\n        }else if(doctorInfo[_addr].exists){\n            return 2;\n        }else if(insurerInfo[_addr].exists){\n            return 3;\n        }else{\n            return 0;\n        }\n    }\n\n\n    function getPatientDoctorList(address _addr) view public returns (address[] memory){\n        require(_addr != address(0));\n        require(patientInfo[_addr].exists);\n        return (patientInfo[_addr].doctorAccessList);\n    }\n    function getDoctorPatientList(address _addr) view public returns (address[] memory){\n        require(_addr != address(0));\n        require(doctorInfo[_addr].exists);\n        return (doctorInfo[_addr].patientAccessList);\n    }\n    function getInsurerPolicyList(address _addr) view public returns (Policy[] memory) {\n        require(_addr != address(0));\n        require(insurerInfo[_addr].exists);\n        return (insurerInfo[_addr].policies);\n    }\n    function getInsurerPatientList(address _addr) view public returns (address[] memory){\n        require(_addr != address(0));\n        require(insurerInfo[_addr].exists);\n        return (insurerInfo[_addr].patients);\n    }\n    function getInsurerClaims(address _addr) view public returns (uint[] memory){\n        require(_addr != address(0));\n        require(insurerInfo[_addr].exists);\n        return (insurerInfo[_addr].claims);\n    }\n    function getPatientTransactions(address _addr) view public returns (uint[] memory){\n        require(_addr != address(0));\n        require(patientInfo[_addr].exists);\n        return (patientInfo[_addr].transactions);\n    }\n    function getDoctorTransactions(address _addr) view public returns (uint[] memory){\n        require(_addr != address(0));\n        require(doctorInfo[_addr].exists);\n        return (doctorInfo[_addr].transactions);\n    }\n    function getAllDoctorsAddress() view public returns (address[] memory) {\n        return doctorList;\n    }\n    function getAllInsurersAddress() view public returns (address[] memory) {\n        return insurerList;\n    }\n    function getAllPolicies() view public returns (Policy[] memory) {\n        return policyList;\n    }\n\n    // Called By Patient\n    function permitAccess(string memory _email) public {\n        require(bytes(_email).length > 0);\n        require(msg.sender != address(0));\n        address _addr = emailToAddress[_email];\n        require(_addr != address(0));\n        require(patientInfo[msg.sender].exists);\n        require(doctorInfo[_addr].exists);\n        Doctor storage dinfo = doctorInfo[_addr];\n        Patient storage pinfo = patientInfo[msg.sender];\n        dinfo.patientAccessList.push(msg.sender);\n        pinfo.doctorAccessList.push(_addr);\n    }\n\n    // Called By Patient\n    function buyPolicy(uint _id) payable public {\n        require(_id >= 0 && _id < policyList.length);\n        require(msg.sender != address(0));\n        require(patientInfo[msg.sender].exists);\n        require(msg.sender.balance >= msg.value);\n        payable(policyList[_id].insurer).transfer(msg.value);\n        patientInfo[msg.sender].policy.id = policyList[_id].id;\n        patientInfo[msg.sender].policy.name = policyList[_id].name;\n        patientInfo[msg.sender].policy.coverValue = policyList[_id].coverValue;\n        patientInfo[msg.sender].policy.insurer = policyList[_id].insurer;\n        patientInfo[msg.sender].policy.timePeriod = policyList[_id].timePeriod;\n        patientInfo[msg.sender].policy.premium = policyList[_id].premium;\n        patientInfo[msg.sender].policyActive = true;\n        insurerInfo[policyList[_id].insurer].patients.push(msg.sender);\n    }\n    \n    // Called by Patient\n    function revokeAccess(address _addr) public{\n        require(_addr != address(0));\n        require(msg.sender != address(0));\n        require(doctorInfo[_addr].exists);\n        require(patientInfo[msg.sender].exists);\n        removeFromList(doctorInfo[_addr].patientAccessList, msg.sender);\n        removeFromList(patientInfo[msg.sender].doctorAccessList, _addr);\n    }\n\n    // Called by Patient\n    function settleTransactionsByPatient(uint _id) payable public {\n        require(msg.sender != address(0));\n        require(patientInfo[msg.sender].exists);\n        require(msg.sender == transactions[_id].sender);\n        require(!transactions[_id].settled);\n        address _addr = transactions[_id].receiver;\n        require(doctorInfo[_addr].exists);\n        payable(_addr).transfer(msg.value);\n        transactions[_id].settled = true;\n    }\n\n    // Called by Doctor\n    function insuranceClaimRequest(address paddr, string memory _hash, uint charges) public {\n        require(msg.sender != address(0));\n        require(paddr != address(0));\n        require(doctorInfo[msg.sender].exists);\n        require(patientInfo[paddr].exists);\n        require(bytes(_hash).length > 0);\n        bool patientFound = false;\n        for(uint i = 0;i<doctorInfo[msg.sender].patientAccessList.length;i++){\n            if(doctorInfo[msg.sender].patientAccessList[i]==paddr){\n                patientFound = true;\n            }\n        }\n        if(!patientFound){\n            revert();\n        }\n        patientInfo[paddr].record = _hash;\n        if(patientInfo[paddr].policyActive && patientInfo[paddr].policy.coverValue > 0){\n            address iaddr = patientInfo[paddr].policy.insurer;\n            if(patientInfo[paddr].policy.coverValue >= charges){\n                transactionCount++;\n                transactions[transactionCount] = Transactions(iaddr, msg.sender, charges, false);\n                doctorInfo[msg.sender].transactions.push(transactionCount);\n                insurerInfo[iaddr].transactions.push(transactionCount);\n                patientInfo[paddr].policy.coverValue = patientInfo[paddr].policy.coverValue - charges;\n                if(patientInfo[paddr].policy.coverValue==0){\n                    patientInfo[paddr].policyActive = false;\n                }\n                claimsCount++;\n                claims[claimsCount] = Claims(msg.sender, paddr, iaddr, patientInfo[paddr].policy.name, _hash, charges, false, false, transactionCount);\n                insurerInfo[iaddr].claims.push(claimsCount);\n            }else{\n                transactionCount++;\n                transactions[transactionCount] = Transactions(paddr, msg.sender, charges-patientInfo[paddr].policy.coverValue, false);\n                doctorInfo[msg.sender].transactions.push(transactionCount);\n                patientInfo[paddr].transactions.push(transactionCount);\n                transactionCount++;\n                transactions[transactionCount] = Transactions(iaddr, msg.sender, patientInfo[paddr].policy.coverValue, false);\n                doctorInfo[msg.sender].transactions.push(transactionCount);\n                insurerInfo[iaddr].transactions.push(transactionCount);\n                claimsCount++;\n                claims[claimsCount] = Claims(msg.sender, paddr, iaddr, patientInfo[paddr].policy.name, _hash, patientInfo[paddr].policy.coverValue, false, false, transactionCount);\n                insurerInfo[iaddr].claims.push(claimsCount);\n                patientInfo[paddr].policy.coverValue = 0;\n                patientInfo[paddr].policyActive = false;\n            }\n        }else{\n            transactionCount++;\n            transactions[transactionCount] = Transactions(paddr, msg.sender, charges, false);\n            doctorInfo[msg.sender].transactions.push(transactionCount);\n            patientInfo[paddr].transactions.push(transactionCount);\n        }\n    }\n\n    // Called By Insurer\n    function createPolicy(string memory _name, uint _coverValue, uint _timePeriod, uint _premium) public {\n        require(bytes(_name).length > 0);\n        require(_coverValue > 0);\n        require(_premium > 0);\n        require(_timePeriod > 0);\n        require(msg.sender != address(0));\n        require(insurerInfo[msg.sender].exists);\n        Policy memory pol = Policy(policyList.length, msg.sender, _name, _coverValue, _timePeriod, _premium);\n        policyList.push(pol);\n        insurerInfo[msg.sender].policies.push(pol);\n    }\n\n    // Called by Insurer\n    function approveClaimsByInsurer(uint _id) payable public {\n        require(msg.sender != address(0));\n        require(insurerInfo[msg.sender].exists);\n        require(msg.sender == claims[_id].insurer);\n        require(!claims[_id].approved);\n        require(!claims[_id].rejected);\n        address _addr = claims[_id].doctor;\n        require(doctorInfo[_addr].exists);\n        payable(_addr).transfer(msg.value);\n        Claims storage cl = claims[_id];\n        cl.approved = true;\n        Transactions storage tr = transactions[claims[_id].transactionId];\n        tr.settled = true;\n    }\n\n    // Called by Insurer\n    function rejectClaimsByInsurer(uint _id) public {\n        require(msg.sender != address(0));\n        require(insurerInfo[msg.sender].exists);\n        require(msg.sender == claims[_id].insurer);\n        require(!claims[_id].approved);\n        require(!claims[_id].rejected);\n        address _addr = claims[_id].patient;\n        require(patientInfo[_addr].exists);\n        Claims storage cl = claims[_id];\n        cl.rejected = true;\n        Transactions storage tr = transactions[claims[_id].transactionId];\n        tr.sender = _addr;\n        patientInfo[_addr].transactions.push(claims[_id].transactionId);\n        Policy storage pol = patientInfo[_addr].policy;\n        if(!patientInfo[_addr].policyActive){\n            patientInfo[_addr].policyActive = true;\n        }\n        pol.coverValue += claims[_id].valueClaimed;\n    }\n\n    function removeFromList(address[] storage Array, address addr) internal returns (uint){\n        require(addr != address(0));\n        bool check = false;\n        uint del_index = 0;\n        for(uint i = 0; i<Array.length; i++){\n            if(Array[i] == addr){\n                check = true;\n                del_index = i;\n            }\n        }\n        if(!check) revert();\n        else{\n            if(Array.length > 1){\n                Array[del_index] = Array[Array.length - 1];\n            }\n            Array.pop();\n        }\n        return del_index;\n    }\n}\n",
  "sourcePath": "/Users/admin/Documents/Work/main-apps/MediWox/truffle/contracts/MediWox.sol",
  "compiler": {
    "name": "solc",
    "version": "0.8.18+commit.87f61d96.Emscripten.clang"
  },
  "schemaVersion": "3.4.16",
  "updatedAt": "2025-01-16T11:44:15.606Z",
  "networkType": "ethereum",
  "devdoc": {
    "kind": "dev",
    "methods": {},
    "version": 1
  },
  "userdoc": {
    "kind": "user",
    "methods": {},
    "version": 1
  }
}